:1000000097C00000B1C00000AFC00000ADC000004C
:10001000ABC00000A9C00000A7C00000A5C0000040
:10002000A3C00000A1C000009FC00000D9C700000D
:100030000C949C0899C0000097C0000095C0000077
:1000400093C0000091C000008FC000008DC0000070
:100050008BC0000089C0000087C0000000C2000003
:1000600083C0000081C000007FC000007DC0000090
:100070007BC000002E03520055004D00420041009D
:1000800020002D002000410054006D006500670035
:10009000610020003200350036003000200063008F
:1000A0006F006D00700061007400690062006C00F8
:1000B0006500000018035200520044002000280090
:1000C0007700770077002E00720075006D006200E7
:1000D00061002E006300630029000000040309048E
:1000E00009023E00020100C064090400000102028E
:1000F0000100052400100104240206052406000165
:10010000070582030800FF09040100020A0000003D
:10011000070504024000050705830240000512019F
:10012000100102000008EB034B2088880102DC016B
:1001300011241FBECFEFD2E0DEBFCDBF11E0A0E0A3
:10014000B1E0E4E0F2E102C005900D92AE31B107FA
:10015000D9F722E0AEE1B1E001C01D92A434B207AC
:10016000E1F771D00C9400094BCF292F33272230AF
:10017000310539F123303105A9F02130310549F03D
:1001800020E030E080E090E0FA0191838083C901B3
:10019000089522E130E08EE191E0FA0191838083BD
:1001A000C9010895992781309105A1F08230910508
:1001B000B9F0892B29F7ECEDF0E0249130E0CF0184
:1001C000E3CF2EE330E080EE90E0FA01918380836C
:1001D000C9010895E4EBF0E0249130E0CF01D4CFE1
:1001E000E4E7F0E0249130E0CF01CECF84B7877F01
:1001F00084BF28E10FB6F89420936000109260004D
:100200000FBE90E080E80FB6F89480936100909361
:1002100061000FBE87E690E09093CD008093CC0004
:1002200086E08093CA001092C8002093C900539AB8
:100230005A9A8AB180638AB98BB180638BB9C1D66F
:100240005F9A579A0895D2DF8EE1E82E81E0F82E6A
:10025000F7014FB7F8948AE291E09183808393830A
:100260008283958384838AEA91E09783868320E85A
:1002700030E031872087138612864FBF0AEA11E0EB
:10028000F8014FB7F89486EB91E0918380839383D4
:1002900082839583848386E392E097838683318784
:1002A0002087138612864FBF8BB18F7C8BB97894D1
:1002B00095E0D92E8FB7F89420912801309129012B
:1002C0008FBF809126019091270128173907E1F00F
:1002D00080E091E002D297FD17C0F701A081B181C3
:1002E0008C938081918101969183808326813781CF
:1002F0008217930709F491C02FB7F89482859385EC
:100300000196938782872FBF2FB7F8948091B4010D
:100310009091B5012FBF0097E1F1209101012F705D
:100320002093E9002091E80020FF33C0803491053C
:1003300010F08FE390E0C82E882359F1C0E0D0E0A0
:100340000BC02FB7F8948285938501979387828796
:100350002FBF2196CC16E9F05C98D0923602E0913E
:10036000AC01F091AD01608180E091E045D1811157
:1003700010C0F80182819381019693838283268144
:10038000378182179307E9F684819581938382836D
:10039000D8CF2FB7F89480912801909129012FBFD1
:1003A000892BC9F480913602882331F081508093E3
:1003B0003602811101C05C9A80913702882331F0A6
:1003C000815080933702811101C05D9A80E091E0F5
:1003D0006ED1F7D36FCFF701A281B3812D91B38393
:1003E000A28386819781A817B90791F03FB7F89447
:1003F000828593850197938782873FBF8091C8004C
:1004000085FFFCCF2093CE005D98D0923702CACFF3
:100410008481958193838283E9CF848195819183BF
:1004200080836ACF8BB180638F7D8BB908958BB148
:100430008F7C8BB9089580E091E0B9D0811106C01E
:100440009FEC8BB1806389238BB908959FEF8BB1AB
:10045000806389238BB9089580E091E06CC11F927D
:100460000F920FB60F9211242F933F938F939F9368
:10047000AF93BF93EF93FF939091CE008EB38430F0
:1004800069F0FF91EF91BF91AF919F918F913F9153
:100490002F910F900FBE0F901F901895EAEAF1E090
:1004A000A081B1819C938081918101969183808309
:1004B000268137818217930749F02FB7F8948285F8
:1004C00093850196938782872FBFDBCF84819581A7
:1004D00091838083F2CF1F93CF93DF93EC01E98D5B
:1004E000E150E23008F452C010E0888D823009F407
:1004F00043C08A8D873009F444C0883009F44BC06A
:100500008630C1F11092C9001092C8001092CA0042
:100510001092CB002C893D894E895F89211581EE8F
:1005200038074105510579F1CA01B90196958795BA
:100530007795679560587B47814E9F4F3FD62150F6
:1005400031093093CD002093CC001093CA008C89E0
:100550009D89AE89BF898115914EA105B105E9F04C
:1005600082E08093C80088E98093C900DF91CF9131
:100570001F9108951260C6CF18608A8D873009F0E8
:10058000BCCF1460BFCF20E130E0DBCFF0E0E55E10
:10059000FE4F1081AACF1660B5CF80E0E2CFFC01FC
:1005A000208920FD02C05F9A08955F980895CF9337
:1005B000DF93EC014096FC018BE0DF011D928A95F0
:1005C000E9F782E08C83898783E08E8761E0CE0142
:1005D00001961CD4811104C080E0DF91CF91089571
:1005E00061E0CE01069612D48823B1F361E0CE011A
:1005F0000B96DF91CF910AC40F931F93CF93DF9394
:100600001F92CDB7DEB72EB3243039F082E00F90C1
:10061000DF91CF911F910F910895FC0104891589F5
:1006200026893789012B022B032B81F381818F705F
:100630008093E9008091E80085FF04C06093F10099
:1006400080E0E5CF8091E8008E778093E8006983B1
:1006500052D46981882391F3DACF2EB3243011F07C
:1006600082E00895FC014489558966897789452B84
:10067000462B472BA9F381818F708093E9008091ED
:10068000F200882349F09091E8008091E8008E778D
:100690008093E80095FF02C080E008952CD481117A
:1006A000E0CF9091E8009E779093E80008952EB3F4
:1006B000243009F00895FC014489558966897789B9
:1006C000452B462B472BB1F321812F702093E90056
:1006D0002091E80020FFEECFC0CF2EB3243019F5D3
:1006E000FC014489558966897789452B462B472B20
:1006F000D1F086818F708093E9008091E80082FFBD
:1007000012C08091F200882391F02091F10030E036
:100710008091F200811109C08091E8008B7780936D
:10072000E800C90108952FEF3FEFC90108952FEFA9
:100730003FEFEECF08950F931F93CF93DF9300D039
:10074000CDB7DEB72091E80023FF0AC0FC0120816D
:1007500030E040914002509141024217530739F076
:100760000F900F90DF91CF911F910F9108952091DD
:100770003D02213209F459C0D0F5203289F7209189
:100780003C02213269F72091E800277F2093E8009E
:1007900003C02EB3222321F32091E80022FFF9CFDA
:1007A0005091F1004091F1003091F1002091F10061
:1007B000FC01548B458B368B278B2091F100208FC9
:1007C0002091F100218F2091F100228F2091E800EB
:1007D0002B772093E80089839A836DD389819A814E
:1007E0000F900F90DF91CF911F910F9174CE223215
:1007F00009F456C0233209F0B3CF20913C022132D4
:1008000009F0AECF2091E800277F2093E80089838C
:100810009A8351D360913E0289819A810F900F9003
:10082000DF91CF911F910F9185CF20913C02213A0A
:1008300009F096CF2091E800277F2093E8002091CF
:10084000E80020FFFCCFFC0144895589668977893F
:100850004093F100052F162F272F33270093F10027
:100860008B01222733270093F100472F5527662756
:1008700077274093F100208D2093F100218D209364
:10088000F100828D8093F1008091E8008E77809353
:10089000E8000F900F90DF91CF911F910F910BC344
:1008A00020913C02213209F05BCF2091E800277FA4
:1008B0002093E80089839A83FED220913E023091F2
:1008C0003F0289819A81FC01318B208B0F900F9020
:1008D000DF91CF911F910F9162CE1F93CF93DF9342
:1008E000CDB7DEB7AC970FB6F894DEBF0FBECDBF65
:1008F000ECE3F2E08091F100819322E0E434F2072E
:10090000C9F7AADD8091E80083FF11C080913C0205
:1009100020913D02253009F45FC008F1283009F428
:10092000E0C0293009F4C5C0263009F478C08091B0
:10093000E80083FF0AC08091E800877F8093E80089
:100940008091EB0080628093EB00AC960FB6F89438
:10095000DEBF0FBECDBFDF91CF911F910895213033
:1009600021F008F481C0233011F7882309F4CCC0AA
:100970008230E9F680913E02811125C080914002CB
:10098000909141028F709927009789F28093E90036
:100990003091EB0030FF17C0233009F40BC1909168
:1009A000EB0090619093EB0021E030E001C0220F5A
:1009B0008A95EAF72093EA001092EA008091EB0012
:1009C00088608093EB001092E9008091E800877FB7
:1009D0008093E80070D2ABCF8111A9CF80913E0205
:1009E00090913F028F779927182F9091E30090788C
:1009F000982B9093E3008091E800877F8093E80034
:100A00005AD28091E80080FFFCCF8091E30080689B
:100A10008093E30011118DC082E08EBB88CF805897
:100A2000823008F084CF80913E0290913F028C3D4D
:100A300023E0920709F480C0AE01455D5F4F6091ED
:100A4000400293DB009709F472CF2091E800277FE2
:100A50002093E800BC018BA59CA539D18091E800CA
:100A60008B778093E80063CF803809F459C08238CF
:100A700009F05DCF80914002909141028F709927DB
:100A80008093E9009091EB0095FB992790F91092E3
:100A9000E9008091E800877F8093E8009093F1005F
:100AA0001092F1008091E8008E778093E80003D2E5
:100AB0003ECF81113CCF80913E02823008F037CF8B
:100AC0009091E800977F9093E80080933802F3D1EB
:100AD00080913802882309F463C084E08EBBABDCCC
:100AE00026CF803809F023CF8091E800877F80935C
:100AF000E800809138028093F1008091E8008E77C1
:100B00008093E800D8D113CF80913E02813009F064
:100B10000ECF81E0233009F080E080933A0253CF7A
:100B20009091390280913A02882309F4B2CF926001
:100B3000B0CF83E08EBBFBCE83E08A838AE28983D9
:100B40005FB7F894DE01139620E03EE041E207C073
:100B500090E0C7968D939D932F5F243181F0E32F12
:100B6000F0E040935700849120FF03C082958F707E
:100B70003F5F8F708A3060F790E0C096EBCF5FBF29
:100B80008091E800877F8093E8006AE270E0CE0100
:100B900001963CD08091E8008B778093E800C7CE27
:100BA0008091E30087FF03C084E08EBB98CF81E093
:100BB0008EBB95CF8091EB0080628093EB0003CFDA
:100BC0000895CF938EB38823A1F08091E9008F70B0
:100BD0009091EC0090FD0FC090E0C92FC82B1092AF
:100BE000E9009091E80093FD0FC08C2F8F708093E7
:100BF000E900CF91089590E8C92FC82B1092E90021
:100C00009091E80093FFF1CF68DEEFCF2091420290
:100C1000309143022617370758F06115710509F026
:100C20004EC02091E8002E772093E80020E030E0CD
:100C300060E02115310511F46623B1F14EB3442370
:100C400009F43FC04530C9F14091E80043FD3BC085
:100C50004091E80042FD28C04091E80040FFE9CF04
:100C60004091F20050E02115310599F048305105CE
:100C700080F4FC0103C04830510559F08191809304
:100C8000F100CF01215031094F5F5F4F2115310530
:100C900091F761E04830510509F060E04091E800CB
:100CA0004E774093E800C5CF8091E80082FD0DC0EB
:100CB0008EB3882331F08530B9F783E008959B0126
:100CC000B7CF82E0089581E0089580E008952091F3
:100CD0004202309143022617370758F0611571051B
:100CE00009F04CC02091E8002E772093E80020E026
:100CF00030E0FC0140E02115310511F4442399F165
:100D00008EB3882309F43CC08530B1F18091E800AE
:100D100083FD38C08091E80082FD25C08091E80005
:100D200080FFE9CF8091F20090E02115310589F034
:100D30008830910520F00DC08830910551F0449124
:100D40004093F1003196215031090196211531056A
:100D500099F741E0089709F040E08091E8008E772C
:100D60008093E800C8CF8091E80082FD0DC08EB36B
:100D7000882331F08530B9F783E008959B01B9CF1E
:100D800082E0089581E0089580E00895853098F527
:100D90008093E900982F242F762F50E021FF19C06F
:100DA0003091EB003E7F3093EB003091ED003D7FC2
:100DB0003093ED003091EB0031603093EB00709395
:100DC000EC002093ED005093F0002091EE0027FFFF
:100DD0001BC09F5F953079F09093E900891781F0EF
:100DE0007091EC002091ED005091F00021FDD8CFE2
:100DF0009F5F953089F78F708093E90081E00895B7
:100E0000242F762F50E0CACF80E00895EF92FF9212
:100E10000F931F93CF93DF93E62E6623B1F1EC017E
:100E20008C010C5F1F4FF12C5881552341F1F801C3
:100E30009081E981FA81D80111976C91852F8F708B
:100E4000853058F5923088F146E0E930F10588F1B7
:100E500028E030E090E09F5F220F331F2E173F07FE
:100E6000D0F39295907F492B6295660F660F607C58
:100E7000551F5527551F652B89DF882371F0F39483
:100E800025960B5F1F4FFE10CFCF81E0DF91CF91F2
:100E90001F910F91FF90EF90089580E0DF91CF9127
:100EA0001F910F91FF90EF90089542E0E930F10516
:100EB00078F690E0D8CF80913C0287FD08C0809101
:100EC000E80080FD0CC08EB38111F9CF08958091A8
:100ED000E80082FD0AC08EB38111F9CF0895809198
:100EE000E8008E778093E80008958091E8008B7782
:100EF0008093E80008952091E4003091E50045E6F4
:100F00008091EC0080FF19C08091E80080FD19C03D
:100F10008EB38823C1F08530C1F08091EB0085FD50
:100F200016C08091E4009091E5002817390741F33D
:100F300041509C0129F784E008958091E80082FFE8
:100F4000E7CF80E0089582E0089583E0089581E08E
:100F5000089540D042D08091D8008F778093D800F8
:100F60008091D80080688093D8008091D8008F7DD0
:100F70008093D80084E089BD86E089BD09B400FE75
:100F8000FDCF1EBA1092380210923A021092390226
:100F900042E060E080E0FADE8091E1008E7F8093A5
:100FA000E1008091E20081608093E2008091E200A4
:100FB00088608093E2008091E0008E7F8093E00063
:100FC0000895E3E6F0E080818E7F808381E0809366
:100FD0003B02BFCF1092E20008951092E100089505
:100FE0001F920F920FB60F9211242F933F934F939E
:100FF0005F936F937F938F939F93AF93BF93EF9381
:10100000FF938091E10082FF04C08091E20082FDA5
:1010100082C08091E10080FF04C08091E20080FDE9
:1010200067C08091E10084FF27C08091E20084FFC7
:1010300023C084E089BD86E089BD09B400FEFDCFF0
:101040008091D8008F7D8093D8008091E1008F7EC1
:101050008093E1008091E2008F7E8093E200809196
:10106000E20081608093E20080913802882309F4D5
:1010700059C084E08EBBD6D98091E10083FF04C0C3
:101080008091E20083FD11C0FF91EF91BF91AF917C
:101090009F918F917F916F915F914F913F912F9190
:1010A0000F900FBE0F901F9018958091E100877FE1
:1010B0008093E10082E08EBB109238028091E100C3
:1010C0008E7F8093E1008091E2008E7F8093E2002A
:1010D0008091E20080618093E20042E060E080E085
:1010E00055DE8091F00088608093F00069DDCCCF00
:1010F0008091E2008E7F8093E2008091E200806127
:101100008093E2008091D80080628093D80019BC5F
:101110001EBA8DD986CF8091E1008B7F8093E1004C
:101120004FDD77CF8091E30087FF03C084E08EBB63
:10113000A2CF81E08EBB9FCF1F920F920FB60F926E
:1011400011242F933F934F935F936F937F938F93CC
:101150009F93AF93BF93CF93EF93FF938091E90059
:101160008F709091EC0090FD27C0C0E0C82B1092CA
:10117000E9008091F000877F8093F0007894ADDBE8
:101180001092E9008091F00088608093F000CF70A9
:10119000C093E900FF91EF91CF91BF91AF919F91E3
:1011A0008F917F916F915F914F913F912F910F9010
:1011B0000FBE0F901F901895C0E8D8CFA1E21A2E4D
:1011C000AA1BBB1BFD010DC0AA1FBB1FEE1FFF1FEB
:1011D000A217B307E407F50720F0A21BB30BE40B3B
:1011E000F50B661F771F881F991F1A9469F7609582
:1011F0007095809590959B01AC01BD01CF0108953C
:04120000F894FFCF90
:101204000083400000010440000001820800000146
:0E12140000000000000000000000003020007C
:00000001FF
